{
  "_format": "hh-sol-artifact-1",
  "contractName": "Registry",
  "sourceName": "contracts/governance_standard/Registry.sol",
  "abi": [
    {
      "inputs": [],
      "stateMutability": "nonpayable",
      "type": "constructor"
    },
    {
      "anonymous": false,
      "inputs": [
        {
          "indexed": false,
          "internalType": "address",
          "name": "senderAddr",
          "type": "address"
        }
      ],
      "name": "SenderAddress",
      "type": "event"
    },
    {
      "inputs": [
        {
          "internalType": "uint256",
          "name": "value",
          "type": "uint256"
        }
      ],
      "name": "addCommodityValue",
      "outputs": [],
      "stateMutability": "nonpayable",
      "type": "function"
    },
    {
      "inputs": [],
      "name": "countAttributeTypes",
      "outputs": [
        {
          "internalType": "uint256",
          "name": "",
          "type": "uint256"
        }
      ],
      "stateMutability": "view",
      "type": "function"
    },
    {
      "inputs": [
        {
          "internalType": "uint256",
          "name": "index",
          "type": "uint256"
        }
      ],
      "name": "getAttributeTypeID",
      "outputs": [
        {
          "internalType": "uint256",
          "name": "",
          "type": "uint256"
        }
      ],
      "stateMutability": "view",
      "type": "function"
    },
    {
      "inputs": [
        {
          "internalType": "address",
          "name": "account",
          "type": "address"
        },
        {
          "internalType": "uint256",
          "name": "attributeTypeID",
          "type": "uint256"
        }
      ],
      "name": "getAttributeValue",
      "outputs": [
        {
          "internalType": "uint256[2]",
          "name": "",
          "type": "uint256[2]"
        }
      ],
      "stateMutability": "view",
      "type": "function"
    },
    {
      "inputs": [
        {
          "internalType": "address",
          "name": "account",
          "type": "address"
        },
        {
          "internalType": "uint256",
          "name": "attributeTypeID",
          "type": "uint256"
        }
      ],
      "name": "hasAttribute",
      "outputs": [
        {
          "internalType": "bool",
          "name": "",
          "type": "bool"
        }
      ],
      "stateMutability": "view",
      "type": "function"
    },
    {
      "inputs": [
        {
          "internalType": "uint256",
          "name": "newValue",
          "type": "uint256"
        }
      ],
      "name": "updateCommodityValue",
      "outputs": [],
      "stateMutability": "nonpayable",
      "type": "function"
    }
  ],
  "bytecode": "0x608060405234801561001057600080fd5b506040805160208101909152600080825261002c916001610032565b5061008a565b8260018101928215610065579160200282015b82811115610065578251829060ff16905591602001919060010190610045565b50610071929150610075565b5090565b5b808211156100715760008155600101610076565b610492806100996000396000f3fe608060405234801561001057600080fd5b50600436106100625760003560e01c80630e62fde6146100675780634b5f297a1461008d57806355409970146100d6578063cd6c8343146100eb578063d71710e01461010b578063ff0b719214610112575b600080fd5b61007a6100753660046103c4565b610125565b6040519081526020015b60405180910390f35b6100c661009b3660046103dd565b6001600160a01b03919091166000908152600160209081526040808320938352929052205460ff1690565b6040519015158152602001610084565b6100e96100e43660046103c4565b61018d565b005b6100fe6100f93660046103dd565b61021d565b6040516100849190610415565b600161007a565b6100e96101203660046103c4565b6102ec565b6000600182106101725760405162461bcd60e51b8152602060048201526013602482015272496e646578204f7574206f6620426f756e642160681b60448201526064015b60405180910390fd5b6000826001811061018557610185610446565b015492915050565b60008054338083526001602081815260408086208587528252808620805460ff19169093179092558151808301835286815280820187905292855260028082528286208587529091529084206101e4929091610353565b506040513381527f1f9c75914c5f19dbd88fea3650adc0d96ce1acba5863d8a8cb9c5dbf194f8f689060200160405180910390a1505050565b610225610391565b6001600160a01b038316600090815260016020908152604080832085845290915290205460ff166102985760405162461bcd60e51b815260206004820152601c60248201527f4174747269627574652074797065204944206e6f7420666f756e6421000000006044820152606401610169565b6001600160a01b038316600090815260026020818152604080842086855290915280832081518083019283905292909182845b8154815260200190600101908083116102cb57509398975050505050505050565b60008054338083526001602081815260408086208587528252808620805460ff19168417905592855260028082528386208587528083528487209384015485518087019096528086528584018990528688529252909261034c9291610353565b5050505050565b8260028101928215610381579160200282015b82811115610381578251825591602001919060010190610366565b5061038d9291506103af565b5090565b60405180604001604052806002906020820280368337509192915050565b5b8082111561038d57600081556001016103b0565b6000602082840312156103d657600080fd5b5035919050565b600080604083850312156103f057600080fd5b82356001600160a01b038116811461040757600080fd5b946020939093013593505050565b60408101818360005b600281101561043d57815183526020928301929091019060010161041e565b50505092915050565b634e487b7160e01b600052603260045260246000fdfea2646970667358221220aeebe321409d99143d02f66fee7d001cb1957316ce3ce6dc348ae3894e0572ba64736f6c63430008090033",
  "linkReferences": {},
  "deployedLinkReferences": {}
}