{
  "contracts/governance_standard/Registry.sol": {
    "Registry": {
      "abi": [
        {
          "inputs": [],
          "stateMutability": "nonpayable",
          "type": "constructor"
        },
        {
          "anonymous": false,
          "inputs": [
            {
              "indexed": false,
              "internalType": "address",
              "name": "senderAddr",
              "type": "address"
            }
          ],
          "name": "SenderAddress",
          "type": "event"
        },
        {
          "inputs": [
            {
              "internalType": "uint256",
              "name": "value",
              "type": "uint256"
            }
          ],
          "name": "addCommodityValue",
          "outputs": [],
          "stateMutability": "nonpayable",
          "type": "function"
        },
        {
          "inputs": [],
          "name": "countAttributeTypes",
          "outputs": [
            {
              "internalType": "uint256",
              "name": "",
              "type": "uint256"
            }
          ],
          "stateMutability": "view",
          "type": "function"
        },
        {
          "inputs": [
            {
              "internalType": "uint256",
              "name": "index",
              "type": "uint256"
            }
          ],
          "name": "getAttributeTypeID",
          "outputs": [
            {
              "internalType": "uint256",
              "name": "",
              "type": "uint256"
            }
          ],
          "stateMutability": "view",
          "type": "function"
        },
        {
          "inputs": [
            {
              "internalType": "address",
              "name": "account",
              "type": "address"
            },
            {
              "internalType": "uint256",
              "name": "attributeTypeID",
              "type": "uint256"
            }
          ],
          "name": "getAttributeValue",
          "outputs": [
            {
              "internalType": "uint256[2]",
              "name": "",
              "type": "uint256[2]"
            }
          ],
          "stateMutability": "view",
          "type": "function"
        },
        {
          "inputs": [
            {
              "internalType": "address",
              "name": "account",
              "type": "address"
            },
            {
              "internalType": "uint256",
              "name": "attributeTypeID",
              "type": "uint256"
            }
          ],
          "name": "hasAttribute",
          "outputs": [
            {
              "internalType": "bool",
              "name": "",
              "type": "bool"
            }
          ],
          "stateMutability": "view",
          "type": "function"
        },
        {
          "inputs": [
            {
              "internalType": "uint256",
              "name": "newValue",
              "type": "uint256"
            }
          ],
          "name": "updateCommodityValue",
          "outputs": [],
          "stateMutability": "nonpayable",
          "type": "function"
        }
      ],
      "devdoc": {
        "kind": "dev",
        "methods": {
          "countAttributeTypes()": {
            "details": "This function MUST return a positive integer value  - i.e. calling this function MUST NOT cause the caller to revert.",
            "returns": {
              "_0": "The number of available attribute types."
            }
          },
          "getAttributeTypeID(uint256)": {
            "details": "This function MUST revert if the provided `index` value falls outside of the range of the value returned from a directly preceding or subsequent function call to `countAttributeTypes`. It MUST NOT revert if the provided `index` value falls inside said range.",
            "params": {
              "index": "uint256 The index of the attribute type in question."
            },
            "returns": {
              "_0": "The ID of the attribute type."
            }
          },
          "getAttributeValue(address,uint256)": {
            "details": "This function MUST revert if a directly preceding or subsequent function call to `hasAttribute` with identical `account` and `attributeTypeID` parameters would return false.",
            "params": {
              "account": "address The account to check for the given attribute value.",
              "attributeTypeID": "uint256 The ID of the attribute type to check for."
            },
            "returns": {
              "_0": "The attribute value if the attribute is valid, reverts otherwise."
            }
          },
          "hasAttribute(address,uint256)": {
            "details": "This function MUST return either true or false - i.e. calling this function MUST NOT cause the caller to revert.",
            "params": {
              "account": "address The account to check for a valid attribute.",
              "attributeTypeID": "uint256 The ID of the attribute type to check for."
            },
            "returns": {
              "_0": "True if the attribute is assigned and valid, false otherwise."
            }
          }
        },
        "version": 1
      },
      "evm": {
        "bytecode": {
          "linkReferences": {},
          "object": "608060405234801561001057600080fd5b506040805160208101909152600080825261002c916001610032565b5061008a565b8260018101928215610065579160200282015b82811115610065578251829060ff16905591602001919060010190610045565b50610071929150610075565b5090565b5b808211156100715760008155600101610076565b610492806100996000396000f3fe608060405234801561001057600080fd5b50600436106100625760003560e01c80630e62fde6146100675780634b5f297a1461008d57806355409970146100d6578063cd6c8343146100eb578063d71710e01461010b578063ff0b719214610112575b600080fd5b61007a6100753660046103c4565b610125565b6040519081526020015b60405180910390f35b6100c661009b3660046103dd565b6001600160a01b03919091166000908152600160209081526040808320938352929052205460ff1690565b6040519015158152602001610084565b6100e96100e43660046103c4565b61018d565b005b6100fe6100f93660046103dd565b61021d565b6040516100849190610415565b600161007a565b6100e96101203660046103c4565b6102ec565b6000600182106101725760405162461bcd60e51b8152602060048201526013602482015272496e646578204f7574206f6620426f756e642160681b60448201526064015b60405180910390fd5b6000826001811061018557610185610446565b015492915050565b60008054338083526001602081815260408086208587528252808620805460ff19169093179092558151808301835286815280820187905292855260028082528286208587529091529084206101e4929091610353565b506040513381527f1f9c75914c5f19dbd88fea3650adc0d96ce1acba5863d8a8cb9c5dbf194f8f689060200160405180910390a1505050565b610225610391565b6001600160a01b038316600090815260016020908152604080832085845290915290205460ff166102985760405162461bcd60e51b815260206004820152601c60248201527f4174747269627574652074797065204944206e6f7420666f756e6421000000006044820152606401610169565b6001600160a01b038316600090815260026020818152604080842086855290915280832081518083019283905292909182845b8154815260200190600101908083116102cb57509398975050505050505050565b60008054338083526001602081815260408086208587528252808620805460ff19168417905592855260028082528386208587528083528487209384015485518087019096528086528584018990528688529252909261034c9291610353565b5050505050565b8260028101928215610381579160200282015b82811115610381578251825591602001919060010190610366565b5061038d9291506103af565b5090565b60405180604001604052806002906020820280368337509192915050565b5b8082111561038d57600081556001016103b0565b6000602082840312156103d657600080fd5b5035919050565b600080604083850312156103f057600080fd5b82356001600160a01b038116811461040757600080fd5b946020939093013593505050565b60408101818360005b600281101561043d57815183526020928301929091019060010161041e565b50505092915050565b634e487b7160e01b600052603260045260246000fdfea2646970667358221220aeebe321409d99143d02f66fee7d001cb1957316ce3ce6dc348ae3894e0572ba64736f6c63430008090033",
          "opcodes": "PUSH1 0x80 PUSH1 0x40 MSTORE CALLVALUE DUP1 ISZERO PUSH2 0x10 JUMPI PUSH1 0x0 DUP1 REVERT JUMPDEST POP PUSH1 0x40 DUP1 MLOAD PUSH1 0x20 DUP2 ADD SWAP1 SWAP2 MSTORE PUSH1 0x0 DUP1 DUP3 MSTORE PUSH2 0x2C SWAP2 PUSH1 0x1 PUSH2 0x32 JUMP JUMPDEST POP PUSH2 0x8A JUMP JUMPDEST DUP3 PUSH1 0x1 DUP2 ADD SWAP3 DUP3 ISZERO PUSH2 0x65 JUMPI SWAP2 PUSH1 0x20 MUL DUP3 ADD JUMPDEST DUP3 DUP2 GT ISZERO PUSH2 0x65 JUMPI DUP3 MLOAD DUP3 SWAP1 PUSH1 0xFF AND SWAP1 SSTORE SWAP2 PUSH1 0x20 ADD SWAP2 SWAP1 PUSH1 0x1 ADD SWAP1 PUSH2 0x45 JUMP JUMPDEST POP PUSH2 0x71 SWAP3 SWAP2 POP PUSH2 0x75 JUMP JUMPDEST POP SWAP1 JUMP JUMPDEST JUMPDEST DUP1 DUP3 GT ISZERO PUSH2 0x71 JUMPI PUSH1 0x0 DUP2 SSTORE PUSH1 0x1 ADD PUSH2 0x76 JUMP JUMPDEST PUSH2 0x492 DUP1 PUSH2 0x99 PUSH1 0x0 CODECOPY PUSH1 0x0 RETURN INVALID PUSH1 0x80 PUSH1 0x40 MSTORE CALLVALUE DUP1 ISZERO PUSH2 0x10 JUMPI PUSH1 0x0 DUP1 REVERT JUMPDEST POP PUSH1 0x4 CALLDATASIZE LT PUSH2 0x62 JUMPI PUSH1 0x0 CALLDATALOAD PUSH1 0xE0 SHR DUP1 PUSH4 0xE62FDE6 EQ PUSH2 0x67 JUMPI DUP1 PUSH4 0x4B5F297A EQ PUSH2 0x8D JUMPI DUP1 PUSH4 0x55409970 EQ PUSH2 0xD6 JUMPI DUP1 PUSH4 0xCD6C8343 EQ PUSH2 0xEB JUMPI DUP1 PUSH4 0xD71710E0 EQ PUSH2 0x10B JUMPI DUP1 PUSH4 0xFF0B7192 EQ PUSH2 0x112 JUMPI JUMPDEST PUSH1 0x0 DUP1 REVERT JUMPDEST PUSH2 0x7A PUSH2 0x75 CALLDATASIZE PUSH1 0x4 PUSH2 0x3C4 JUMP JUMPDEST PUSH2 0x125 JUMP JUMPDEST PUSH1 0x40 MLOAD SWAP1 DUP2 MSTORE PUSH1 0x20 ADD JUMPDEST PUSH1 0x40 MLOAD DUP1 SWAP2 SUB SWAP1 RETURN JUMPDEST PUSH2 0xC6 PUSH2 0x9B CALLDATASIZE PUSH1 0x4 PUSH2 0x3DD JUMP JUMPDEST PUSH1 0x1 PUSH1 0x1 PUSH1 0xA0 SHL SUB SWAP2 SWAP1 SWAP2 AND PUSH1 0x0 SWAP1 DUP2 MSTORE PUSH1 0x1 PUSH1 0x20 SWAP1 DUP2 MSTORE PUSH1 0x40 DUP1 DUP4 KECCAK256 SWAP4 DUP4 MSTORE SWAP3 SWAP1 MSTORE KECCAK256 SLOAD PUSH1 0xFF AND SWAP1 JUMP JUMPDEST PUSH1 0x40 MLOAD SWAP1 ISZERO ISZERO DUP2 MSTORE PUSH1 0x20 ADD PUSH2 0x84 JUMP JUMPDEST PUSH2 0xE9 PUSH2 0xE4 CALLDATASIZE PUSH1 0x4 PUSH2 0x3C4 JUMP JUMPDEST PUSH2 0x18D JUMP JUMPDEST STOP JUMPDEST PUSH2 0xFE PUSH2 0xF9 CALLDATASIZE PUSH1 0x4 PUSH2 0x3DD JUMP JUMPDEST PUSH2 0x21D JUMP JUMPDEST PUSH1 0x40 MLOAD PUSH2 0x84 SWAP2 SWAP1 PUSH2 0x415 JUMP JUMPDEST PUSH1 0x1 PUSH2 0x7A JUMP JUMPDEST PUSH2 0xE9 PUSH2 0x120 CALLDATASIZE PUSH1 0x4 PUSH2 0x3C4 JUMP JUMPDEST PUSH2 0x2EC JUMP JUMPDEST PUSH1 0x0 PUSH1 0x1 DUP3 LT PUSH2 0x172 JUMPI PUSH1 0x40 MLOAD PUSH3 0x461BCD PUSH1 0xE5 SHL DUP2 MSTORE PUSH1 0x20 PUSH1 0x4 DUP3 ADD MSTORE PUSH1 0x13 PUSH1 0x24 DUP3 ADD MSTORE PUSH19 0x496E646578204F7574206F6620426F756E6421 PUSH1 0x68 SHL PUSH1 0x44 DUP3 ADD MSTORE PUSH1 0x64 ADD JUMPDEST PUSH1 0x40 MLOAD DUP1 SWAP2 SUB SWAP1 REVERT JUMPDEST PUSH1 0x0 DUP3 PUSH1 0x1 DUP2 LT PUSH2 0x185 JUMPI PUSH2 0x185 PUSH2 0x446 JUMP JUMPDEST ADD SLOAD SWAP3 SWAP2 POP POP JUMP JUMPDEST PUSH1 0x0 DUP1 SLOAD CALLER DUP1 DUP4 MSTORE PUSH1 0x1 PUSH1 0x20 DUP2 DUP2 MSTORE PUSH1 0x40 DUP1 DUP7 KECCAK256 DUP6 DUP8 MSTORE DUP3 MSTORE DUP1 DUP7 KECCAK256 DUP1 SLOAD PUSH1 0xFF NOT AND SWAP1 SWAP4 OR SWAP1 SWAP3 SSTORE DUP2 MLOAD DUP1 DUP4 ADD DUP4 MSTORE DUP7 DUP2 MSTORE DUP1 DUP3 ADD DUP8 SWAP1 MSTORE SWAP3 DUP6 MSTORE PUSH1 0x2 DUP1 DUP3 MSTORE DUP3 DUP7 KECCAK256 DUP6 DUP8 MSTORE SWAP1 SWAP2 MSTORE SWAP1 DUP5 KECCAK256 PUSH2 0x1E4 SWAP3 SWAP1 SWAP2 PUSH2 0x353 JUMP JUMPDEST POP PUSH1 0x40 MLOAD CALLER DUP2 MSTORE PUSH32 0x1F9C75914C5F19DBD88FEA3650ADC0D96CE1ACBA5863D8A8CB9C5DBF194F8F68 SWAP1 PUSH1 0x20 ADD PUSH1 0x40 MLOAD DUP1 SWAP2 SUB SWAP1 LOG1 POP POP POP JUMP JUMPDEST PUSH2 0x225 PUSH2 0x391 JUMP JUMPDEST PUSH1 0x1 PUSH1 0x1 PUSH1 0xA0 SHL SUB DUP4 AND PUSH1 0x0 SWAP1 DUP2 MSTORE PUSH1 0x1 PUSH1 0x20 SWAP1 DUP2 MSTORE PUSH1 0x40 DUP1 DUP4 KECCAK256 DUP6 DUP5 MSTORE SWAP1 SWAP2 MSTORE SWAP1 KECCAK256 SLOAD PUSH1 0xFF AND PUSH2 0x298 JUMPI PUSH1 0x40 MLOAD PUSH3 0x461BCD PUSH1 0xE5 SHL DUP2 MSTORE PUSH1 0x20 PUSH1 0x4 DUP3 ADD MSTORE PUSH1 0x1C PUSH1 0x24 DUP3 ADD MSTORE PUSH32 0x4174747269627574652074797065204944206E6F7420666F756E642100000000 PUSH1 0x44 DUP3 ADD MSTORE PUSH1 0x64 ADD PUSH2 0x169 JUMP JUMPDEST PUSH1 0x1 PUSH1 0x1 PUSH1 0xA0 SHL SUB DUP4 AND PUSH1 0x0 SWAP1 DUP2 MSTORE PUSH1 0x2 PUSH1 0x20 DUP2 DUP2 MSTORE PUSH1 0x40 DUP1 DUP5 KECCAK256 DUP7 DUP6 MSTORE SWAP1 SWAP2 MSTORE DUP1 DUP4 KECCAK256 DUP2 MLOAD DUP1 DUP4 ADD SWAP3 DUP4 SWAP1 MSTORE SWAP3 SWAP1 SWAP2 DUP3 DUP5 JUMPDEST DUP2 SLOAD DUP2 MSTORE PUSH1 0x20 ADD SWAP1 PUSH1 0x1 ADD SWAP1 DUP1 DUP4 GT PUSH2 0x2CB JUMPI POP SWAP4 SWAP9 SWAP8 POP POP POP POP POP POP POP POP JUMP JUMPDEST PUSH1 0x0 DUP1 SLOAD CALLER DUP1 DUP4 MSTORE PUSH1 0x1 PUSH1 0x20 DUP2 DUP2 MSTORE PUSH1 0x40 DUP1 DUP7 KECCAK256 DUP6 DUP8 MSTORE DUP3 MSTORE DUP1 DUP7 KECCAK256 DUP1 SLOAD PUSH1 0xFF NOT AND DUP5 OR SWAP1 SSTORE SWAP3 DUP6 MSTORE PUSH1 0x2 DUP1 DUP3 MSTORE DUP4 DUP7 KECCAK256 DUP6 DUP8 MSTORE DUP1 DUP4 MSTORE DUP5 DUP8 KECCAK256 SWAP4 DUP5 ADD SLOAD DUP6 MLOAD DUP1 DUP8 ADD SWAP1 SWAP7 MSTORE DUP1 DUP7 MSTORE DUP6 DUP5 ADD DUP10 SWAP1 MSTORE DUP7 DUP9 MSTORE SWAP3 MSTORE SWAP1 SWAP3 PUSH2 0x34C SWAP3 SWAP2 PUSH2 0x353 JUMP JUMPDEST POP POP POP POP POP JUMP JUMPDEST DUP3 PUSH1 0x2 DUP2 ADD SWAP3 DUP3 ISZERO PUSH2 0x381 JUMPI SWAP2 PUSH1 0x20 MUL DUP3 ADD JUMPDEST DUP3 DUP2 GT ISZERO PUSH2 0x381 JUMPI DUP3 MLOAD DUP3 SSTORE SWAP2 PUSH1 0x20 ADD SWAP2 SWAP1 PUSH1 0x1 ADD SWAP1 PUSH2 0x366 JUMP JUMPDEST POP PUSH2 0x38D SWAP3 SWAP2 POP PUSH2 0x3AF JUMP JUMPDEST POP SWAP1 JUMP JUMPDEST PUSH1 0x40 MLOAD DUP1 PUSH1 0x40 ADD PUSH1 0x40 MSTORE DUP1 PUSH1 0x2 SWAP1 PUSH1 0x20 DUP3 MUL DUP1 CALLDATASIZE DUP4 CALLDATACOPY POP SWAP2 SWAP3 SWAP2 POP POP JUMP JUMPDEST JUMPDEST DUP1 DUP3 GT ISZERO PUSH2 0x38D JUMPI PUSH1 0x0 DUP2 SSTORE PUSH1 0x1 ADD PUSH2 0x3B0 JUMP JUMPDEST PUSH1 0x0 PUSH1 0x20 DUP3 DUP5 SUB SLT ISZERO PUSH2 0x3D6 JUMPI PUSH1 0x0 DUP1 REVERT JUMPDEST POP CALLDATALOAD SWAP2 SWAP1 POP JUMP JUMPDEST PUSH1 0x0 DUP1 PUSH1 0x40 DUP4 DUP6 SUB SLT ISZERO PUSH2 0x3F0 JUMPI PUSH1 0x0 DUP1 REVERT JUMPDEST DUP3 CALLDATALOAD PUSH1 0x1 PUSH1 0x1 PUSH1 0xA0 SHL SUB DUP2 AND DUP2 EQ PUSH2 0x407 JUMPI PUSH1 0x0 DUP1 REVERT JUMPDEST SWAP5 PUSH1 0x20 SWAP4 SWAP1 SWAP4 ADD CALLDATALOAD SWAP4 POP POP POP JUMP JUMPDEST PUSH1 0x40 DUP2 ADD DUP2 DUP4 PUSH1 0x0 JUMPDEST PUSH1 0x2 DUP2 LT ISZERO PUSH2 0x43D JUMPI DUP2 MLOAD DUP4 MSTORE PUSH1 0x20 SWAP3 DUP4 ADD SWAP3 SWAP1 SWAP2 ADD SWAP1 PUSH1 0x1 ADD PUSH2 0x41E JUMP JUMPDEST POP POP POP SWAP3 SWAP2 POP POP JUMP JUMPDEST PUSH4 0x4E487B71 PUSH1 0xE0 SHL PUSH1 0x0 MSTORE PUSH1 0x32 PUSH1 0x4 MSTORE PUSH1 0x24 PUSH1 0x0 REVERT INVALID LOG2 PUSH5 0x6970667358 0x22 SLT KECCAK256 0xAE 0xEB 0xE3 0x21 BLOCKHASH SWAP14 SWAP10 EQ RETURNDATASIZE MUL 0xF6 PUSH16 0xEE7D001CB1957316CE3CE6DC348AE389 0x4E SDIV PUSH19 0xBA64736F6C6343000809003300000000000000 "
        },
        "gasEstimates": {
          "creation": {
            "codeDepositCost": "234000",
            "executionCost": "infinite",
            "totalCost": "infinite"
          },
          "external": {
            "addCommodityValue(uint256)": "infinite",
            "countAttributeTypes()": "247",
            "getAttributeTypeID(uint256)": "2413",
            "getAttributeValue(address,uint256)": "infinite",
            "hasAttribute(address,uint256)": "2613",
            "updateCommodityValue(uint256)": "infinite"
          }
        },
        "methodIdentifiers": {
          "addCommodityValue(uint256)": "55409970",
          "countAttributeTypes()": "d71710e0",
          "getAttributeTypeID(uint256)": "0e62fde6",
          "getAttributeValue(address,uint256)": "cd6c8343",
          "hasAttribute(address,uint256)": "4b5f297a",
          "updateCommodityValue(uint256)": "ff0b7192"
        }
      },
      "storageLayout": {
        "storage": [
          {
            "astId": 10,
            "contract": "contracts/governance_standard/Registry.sol:Registry",
            "label": "_attributeTypeIDs",
            "offset": 0,
            "slot": "0",
            "type": "t_array(t_uint256)1_storage"
          },
          {
            "astId": 16,
            "contract": "contracts/governance_standard/Registry.sol:Registry",
            "label": "_issuedAttributes",
            "offset": 0,
            "slot": "1",
            "type": "t_mapping(t_address,t_mapping(t_uint256,t_bool))"
          },
          {
            "astId": 28,
            "contract": "contracts/governance_standard/Registry.sol:Registry",
            "label": "_issuedAttributeValues",
            "offset": 0,
            "slot": "2",
            "type": "t_mapping(t_address,t_mapping(t_uint256,t_array(t_uint256)2_storage))"
          }
        ],
        "types": {
          "t_address": {
            "encoding": "inplace",
            "label": "address",
            "numberOfBytes": "20"
          },
          "t_array(t_uint256)1_storage": {
            "base": "t_uint256",
            "encoding": "inplace",
            "label": "uint256[1]",
            "numberOfBytes": "32"
          },
          "t_array(t_uint256)2_storage": {
            "base": "t_uint256",
            "encoding": "inplace",
            "label": "uint256[2]",
            "numberOfBytes": "64"
          },
          "t_bool": {
            "encoding": "inplace",
            "label": "bool",
            "numberOfBytes": "1"
          },
          "t_mapping(t_address,t_mapping(t_uint256,t_array(t_uint256)2_storage))": {
            "encoding": "mapping",
            "key": "t_address",
            "label": "mapping(address => mapping(uint256 => uint256[2]))",
            "numberOfBytes": "32",
            "value": "t_mapping(t_uint256,t_array(t_uint256)2_storage)"
          },
          "t_mapping(t_address,t_mapping(t_uint256,t_bool))": {
            "encoding": "mapping",
            "key": "t_address",
            "label": "mapping(address => mapping(uint256 => bool))",
            "numberOfBytes": "32",
            "value": "t_mapping(t_uint256,t_bool)"
          },
          "t_mapping(t_uint256,t_array(t_uint256)2_storage)": {
            "encoding": "mapping",
            "key": "t_uint256",
            "label": "mapping(uint256 => uint256[2])",
            "numberOfBytes": "32",
            "value": "t_array(t_uint256)2_storage"
          },
          "t_mapping(t_uint256,t_bool)": {
            "encoding": "mapping",
            "key": "t_uint256",
            "label": "mapping(uint256 => bool)",
            "numberOfBytes": "32",
            "value": "t_bool"
          },
          "t_uint256": {
            "encoding": "inplace",
            "label": "uint256",
            "numberOfBytes": "32"
          }
        }
      },
      "userdoc": {
        "kind": "user",
        "methods": {
          "countAttributeTypes()": {
            "notice": "Count the number of attribute types defined by the registry."
          },
          "getAttributeTypeID(uint256)": {
            "notice": "Get the ID of the attribute type at index `index`."
          },
          "getAttributeValue(address,uint256)": {
            "notice": "Retrieve the value of the attribute of the type with ID `attributeTypeID` on the account at `account`, assuming it is valid."
          },
          "hasAttribute(address,uint256)": {
            "notice": "Check if an attribute of the type with ID `attributeTypeID` has been assigned to the account at `account` and is currently valid."
          }
        },
        "version": 1
      }
    }
  }
}